:100000000C9462000C948A000C948A000C948A0070
:100010000C948A000C948A000C948A000C948A0038
:100020000C948A000C948A000C948A000C9421048D
:100030000C948A000C948A000C948A000C948A0018
:100040000C947F030C948A000C94EF030C94C90366
:100050000C948A000C948A000C948A000C948A00F8
:100060000C948A000C948A000000000023002600F3
:10007000290000000000240027002A0000000000E2
:10008000250028002B0004040404040404040202D4
:100090000202020203030303030301020408102007
:1000A0004080010204081020010204081020000012
:1000B0000008000201000003040700000000000027
:1000C0000000220511241FBECFEFD8E0DEBFCDBF58
:1000D00011E0A0E0B1E0E4E5FFE002C005900D9280
:1000E000A633B107D9F722E0A6E3B1E001C01D9223
:1000F000A730B207E1F710E0C2E6D0E004C02197D4
:10010000FE010E94A207C136D107C9F70E947F05F0
:100110000C94A8070C940000CF92DF92EF92FF920C
:10012000DC01A03282E0B807D4F5A53BB10514F09C
:10013000A4EBB0E04091050228E830E0241B31092F
:1001400047FD3395220F331F220F331F6901330FF1
:10015000EE08FF084091060228E532E0241B310931
:1001600047FD3395220F331F220F331F032E000C40
:10017000440B550B2C193D094E095F09B7FF02C00E
:10018000B0E0A0E00E945D0724EB30E040E050E0EA
:100190000E943307C20ED31EE41EF51ED601E09165
:1001A0000402EC3080F52091050288E890E0821B83
:1001B000910927FD9395880F991F880F991FA817FC
:1001C000B90784F02091060288E592E0821B91092C
:1001D00027FD9395880F991F880F991FA817B907B6
:1001E0000CF4CD010297880F991F4FB7F8942E2F6A
:1001F00030E0F901EE0FFF1FE20FF31FE152FE4F57
:10020000928381834FBFFF90EF90DF90CF9008954E
:1002100090E0FC01E255FF4F2491FC01E656FF4FB0
:100220003491FC01EA57FF4FE491EE23C9F02223F9
:1002300039F0233001F1A8F4213019F1223029F1ED
:10024000F0E0EE0FFF1FE458FF4FA591B4918FB778
:10025000F894EC91611126C030953E233C938FBFFA
:1002600008952730A9F02830C9F0243049F780914B
:1002700080008F7D03C0809180008F778093800005
:10028000DFCF84B58F7784BDDBCF84B58F7DFBCF87
:100290008091B0008F778093B000D2CF8091B00072
:1002A0008F7DF9CF3E2BDACFCF93DF9390E0FC0127
:1002B000E656FF4F24918A579F4FFC018491882373
:1002C000D1F090E0880F991FFC01EE58FF4FA591E7
:1002D000B491FC01E458FF4FC591D49161110EC057
:1002E0009FB7F8948C91E22FE0958E238C93288110
:1002F000E223E8839FBFDF91CF9108958FB7F894F1
:10030000EC91E22BEC938FBFF6CF3FB7F89480913E
:100310003E0190913F01A0914001B091410126B56D
:10032000A89B05C02F3F19F00196A11DB11D3FBF2D
:10033000BA2FA92F982F8827BC01CD01620F711DFC
:10034000811D911D42E0660F771F881F991F4A95F6
:10035000D1F708958F929F92AF92BF92CF92DF9282
:10036000EF92FF924B015C010E9485016B017C01C1
:100370000E9485016C197D098E099F09683E7340B2
:1003800081059105A8F321E0821A9108A108B1081E
:1003900088EEC80E83E0D81EE11CF11C8114910484
:1003A000A104B10429F7FF90EF90DF90CF90BF90A8
:1003B000AF909F908F900895AF92BF92CF92DF92AF
:1003C000EF92FF920F931F93CF93DF936C017B010A
:1003D0008B01040F151FEB015E01AE18BF08C0179B
:1003E000D10759F06991D601ED91FC910190F0810E
:1003F000E02DC6010995892B79F7C501DF91CF91D1
:100400001F910F91FF90EF90DF90CF90BF90AF9032
:100410000895FC01538D448D252F30E0842F90E00A
:10042000821B930B541710F0CF96089501970895EF
:10043000FC01918D828D981761F0A28DAE0FBF2FB8
:10044000B11D5D968C91928D9F5F9F73928F90E00E
:1004500008958FEF9FEF0895FC01918D828D98177D
:1004600031F0828DE80FF11D858D90E008958FEFBA
:100470009FEF0895FC01918D228D892F90E0805C83
:100480009F4F821B91098F739927089582E491E011
:100490000E943A0221E0892B09F420E0822F08957E
:1004A00080E090E0892B29F00E94460281110C9493
:1004B00000000895FC01A48DA80FB92FB11DA35A07
:1004C000BF4F2C91848D90E001968F739927848F74
:1004D000A689B7892C93A089B1898C918370806497
:1004E0008C93938D848D981306C00288F389E02D38
:1004F00080818F7D80830895EF92FF920F931F93E9
:10050000CF93DF93EC0181E0888F9B8D8C8D9813C6
:100510001AC0E889F989808185FF15C09FB7F894D2
:10052000EE89FF896083E889F9898081837080641E
:1005300080839FBF81E090E0DF91CF911F910F9169
:10054000FF90EF900895F62E0B8D10E00F5F1F4F78
:100550000F731127E02E8C8D8E110CC00FB607FC87
:10056000FACFE889F989808185FFF5CFCE010E9415
:100570005A02F1CFEB8DEC0FFD2FF11DE35AFF4F27
:10058000F0829FB7F8940B8FEA89FB8980818062A3
:10059000CFCFCF93DF93EC01888D8823B9F0AA8960
:1005A000BB89E889F9898C9185FD03C0808186FD2E
:1005B0000DC00FB607FCF7CF8C9185FFF2CF80817D
:1005C00085FFEDCFCE010E945A02E9CFDF91CF9196
:1005D0000895FC0101900020E9F73197AF01481B15
:1005E000590BBC0182E491E00C94DC01CF93DF93C2
:1005F0000E94E902EC0182E191E00E94E9028C0F85
:100600009D1FDF91CF9108958F929F92AF92BF92DD
:10061000CF92DF92EF92FF920F931F93CF93DF93CE
:10062000CDB7DEB7A1970FB6F894DEBF0FBECDBF32
:100630006B017C01F7FE41C06DE282E491E00E9413
:100640007C028C0122273327A9012C193D094E0970
:100650005F0919A2CE0181967C019AE0892E912C26
:10066000A12CB12CCA01B901A50194010E94650712
:10067000605DF70162937F01211531054105510548
:1006800089F790E080E0309719F0CF010E94E902ED
:10069000800F911FA1960FB6F894DEBF0FBECDBF9D
:1006A000DF91CF911F910F91FF90EF90DF90CF904E
:1006B000BF90AF909F908F900895AC019B0119A2BD
:1006C0008E010F5D1F4F8AE0C82ED12CE12CF12C3A
:1006D000CA01B901A70196010E946507605DF80192
:1006E00062938F01211531054105510589F790E08D
:1006F00080E0309779F2CF010E94E902CBCF1F92C0
:100700000F920FB60F9211242F933F938F939F93C5
:10071000AF93BF9380913A0190913B01A0913C012E
:10072000B0913D013091390123E0230F2D3758F569
:100730000196A11DB11D2093390180933A01909338
:100740003B01A0933C01B0933D0180913E0190910B
:100750003F01A0914001B09141010196A11DB11D41
:1007600080933E0190933F01A0934001B0934101DB
:10077000BF91AF919F918F913F912F910F900FBE9D
:100780000F901F90189526E8230F0296A11DB11D0A
:10079000D2CF1F920F920FB60F9211242F933F9337
:1007A0004F935F936F937F938F939F93AF93BF9379
:1007B000EF93FF9382E491E00E945A02FF91EF9140
:1007C000BF91AF919F918F917F916F915F914F9169
:1007D0003F912F910F900FBE0F901F9018951F9271
:1007E0000F920FB60F9211242F938F939F93EF9335
:1007F000FF93E0915201F09153018081E091580103
:10080000F091590182FD1BC0908180915B018F5F47
:100810008F7320915C01821741F0E0915B01F0E061
:10082000EE5BFE4F958F80935B01FF91EF919F915F
:100830008F912F910F900FBE0F901F901895808170
:10084000F4CF1F920F920FB60F9211242F933F9364
:100850004F935F936F937F938F939F93AF93BF93C8
:10086000CF93DF93EF93FF9380913601C091030202
:10087000D0E087FF24C01092850010928400809100
:1008800036018F5F8093360180913601082E000C6F
:10089000990B8C179D0724F4809136018C30C4F19C
:1008A0008091840090918500049680349C4908F4DE
:1008B0007AC08091840090918500049676C08091E2
:1008C0003601082E000C990B8C179D07C4F6E09199
:1008D00036018E2FEE0F990BFC01EE0FFF1FE80F74
:1008E000F91FE152FE4F808186FFC9CFE0913601AA
:1008F0008E2FEE0F990BFC01EE0FFF1FE80FF91F73
:10090000E152FE4F808160E08F730E940801B7CFF3
:100910002091840030918500E09136018E2FEE0FFA
:10092000990BFC01EE0FFF1FE80FF91FE152FE4F7C
:1009300081819281820F931F909389008093880018
:10094000E09136018E2FEE0F990BFC01EE0FFF1F89
:10095000E80FF91FE152FE4F808186FF11C0E09140
:1009600036018E2FEE0F990BFC01EE0FFF1FE80FE3
:10097000F91FE152FE4F808161E08F730E940801F0
:10098000FF91EF91DF91CF91BF91AF919F918F91A7
:100990007F916F915F914F913F912F910F900FBE7B
:1009A0000F901F90189580E49CE9909389008093A4
:1009B00088008FEF80933601E3CFCF92DF92EF92E2
:1009C000FF920F931F93E82FF92F05C001501109D3
:1009D0002109310961F1908196239417B9F305C07B
:1009E000015011092109310911F1908196239413C5
:1009F000F7CFC12CD12CE12CF12C0AC08FEFC81AF3
:100A0000D80AE80AF80A0C151D052E053F0579F0ED
:100A100080818623841791F36C2D7D2D8E2D9F2D43
:100A20001F910F91FF90EF90DF90CF90089560E0BD
:100A300070E080E090E01F910F91FF90EF90DF90C9
:100A4000CF900895109245011092440188EE93E0F2
:100A5000A0E0B0E08093460190934701A093480145
:100A6000B093490184E091E0909343018093420167
:100A700085EC90E090934F0180934E0184EC90E0E0
:100A8000909351018093500180EC90E0909353013A
:100A90008093520181EC90E0909355018093540132
:100AA00082EC90E0909357018093560186EC90E0A1
:100AB000909359018093580110925B0110925C0150
:100AC00010925D0110925E01809103028C3098F4C7
:100AD00091E0980F909303028093040290E0FC0150
:100AE000EE0FFF1FE80FF91FE152FE4F88EB9BE06E
:100AF0009283818308958FEF809304020895789400
:100B000084B5826084BD84B5816084BD85B5826012
:100B100085BD85B5816085BD80916E0081608093C3
:100B20006E0010928100809181008260809381002C
:100B3000809181008160809381008091800081603C
:100B4000809380008091B10084608093B100809197
:100B5000B00081608093B00080917A0084608093BF
:100B60007A0080917A00826080937A0080917A0086
:100B7000816080937A0080917A00806880937A0007
:100B80001092C100E0915201F091530182E0808304
:100B9000E0914E01F0914F011082E0915001F091EF
:100BA00051018FEC808310925A01E0915601F0912F
:100BB000570186E08083E0915401F09155018081D6
:100BC00080618083E0915401F091550180818860BB
:100BD0008083E0915401F091550180818068808389
:100BE000E0915401F091550180818F7D8083809147
:100BF00004028C3008F051C061E089E00E94540189
:100C000080910402282F30E0F901EE0FFF1FE20F60
:100C1000F31FE152FE4F9081907C99609083109277
:100C20000502109206022CE0622F0E949607829F16
:100C3000B001112430E020E0AB01420F531FFA0154
:100C4000EE0FFF1FE40FF51FE152FE4F908196FD5E
:100C500016C02F5F3F4F2C30310571F781110FC047
:100C60001092800082E080938100109285001092A3
:100C70008400B19A80916F00826080936F00E09150
:100C800004028E2F90E0FC01EE0FFF1FE80FF91F0A
:100C9000E152FE4F8081806480839AE3492E512C7B
:100CA000612C712C20E0222E20E0322EC4EBD0E00B
:100CB00061E086E00E94540160E086E00E94080145
:100CC00083E090E00197F1F761E086E00E9408017F
:100CD00083E290E00197F1F760E086E00E9408016E
:100CE00060E087E00E945401E1EAF0E06491EDE801
:100CF000F0E08491E82FF0E0EE0FFF1FE859FF4F7E
:100D00008591949100E412E42FE030E0462F0E9498
:100D1000DD046B017C01C114D104E104F10439F05C
:100D2000FFEFCF1ADF0AEF0AFF0A8FE0F822C701B0
:100D3000B60124E930E040E050E00E943307490169
:100D40005A01CA01B9010E94040385E191E00E94A1
:100D5000E902C701B601A30192010E943307CA014B
:100D6000B9010E94040383E391E00E94E90282E159
:100D700091E00E94E902E9E18E169104A104B10418
:100D80000CF066C0C12CD12C7601C701B6010E94BF
:100D900004038AE191E00E94F60210923801109259
:100DA0003701A0903701B0903801F4EBAF16B104D1
:100DB0008CF4C5010E948C0065E070E080E090E05A
:100DC0000E94AA018FEFA81AB80AB0923801A09227
:100DD0003701E7CFD0933801C0933701A090370196
:100DE000B09038011A141B048CF4C5010E948C00C9
:100DF00065E070E080E090E00E94AA01E1E0AE1AB8
:100E0000B108B0923801A0923701E8CFFFEFCF1AB6
:100E1000DF0AEF0AFF0A83E0C816D104E104F104F7
:100E200009F0B3CF80E291E00E94F60264E670E040
:100E300080E090E00E94AA012114310409F438CF27
:100E40000E944602882309F433CF0E94000030CF6D
:100E50008BE291E00E94F602809137019091380177
:100E60000E948C00E3CF052E97FB1EF400940E9495
:100E70004A0757FD07D00E94650707FC03D04EF4D0
:100E80000C944A0750954095309521953F4F4F4F10
:100E90005F4F089590958095709561957F4F8F4F26
:100EA0009F4F08950E948707A59F900DB49F900DB6
:100EB000A49F800D911D11240895B7FF0C94520733
:100EC0000E945207821B930B0895A1E21A2EAA1BBF
:100ED000BB1BFD010DC0AA1FBB1FEE1FFF1FA217EA
:100EE000B307E407F50720F0A21BB30BE40BF50BE7
:100EF000661F771F881F991F1A9469F76095709570
:100F0000809590959B01AC01BD01CF010895A29FF2
:100F1000B001B39FC001A39F700D811D1124911DCD
:100F2000B29F700D811D1124911D0895991B79E0C8
:100F300004C0991F961708F0961B881F7A95C9F769
:100F400080950895EE0FFF1F0590F491E02D099410
:040F5000F894FFCF43
:100F5400000000007C02DC010902C9023A02180206
:100F64002C020D0A00696E2C2000737765657000F1
:100F7400537765657020446F6E65006F76657220E7
:060F8400323420636D0011
:00000001FF
